:020000040800F2
:10000000681000209D010008B14100082538000853
:10001000F53F0008091400083D4A000800000000F0
:10002000000000000000000000000000094300087C
:100030005116000800000000494200080B43000868
:10004000B7010008B7010008B7010008B7010008B0
:10005000B7010008B7010008B7010008B7010008A0
:10006000B7010008B7010008B7010008B701000890
:10007000B7010008711500087D150008B7010008D8
:1000800089150008B701000805120008B70100082B
:10009000B7010008B7010008B7010008B701000860
:1000A000B7010008B7010008B7010008B701000850
:1000B000B5430008C1430008CD430008B70100085C
:1000C000B7010008B7010008B7010008B701000830
:1000D000B7010008C5490008D1490008314A0008A5
:1000E000B7010008B7010008B7010008B701000810
:1000F000B7010008B7010008B7010008B701000800
:10010000B7010008B7010008F9430008B70100086B
:1001100045450008B701000805440008B70100087C
:1001200095150008B7010008B7010008B7010008DD
:10013000B70100080000000000000000B70100083F
:10014000B7010008B7010008B7010008B7010008AF
:10015000A1150008B7010008B7010008B7010008A1
:10016000B7010008B7010008B7010008B70100088F
:10017000B7010008B70100080000000000000000FF
:10018000B7010008B7010008DFF80CD000F076FCDA
:10019000004800475D570008681000200648804767
:1001A00006480047FEE7FEE7FEE7FEE7FEE7FEE75C
:1001B000FEE7FEE7FEE7FEE7A54300088901000829
:1001C0002DE9F05F0546002092469B46884606468C
:1001D000814640241BE0284641464746224600F01F
:1001E000E1F953465A46C01A914110D311461846B8
:1001F000224600F0C8F92D1A67EB01084F46224647
:100200000120002100F0BFF917EB00094E41201E2C
:10021000A4F10104DFDC484631462A464346BDE8E6
:10022000F09F40EA01039B0703D009E008C9121FB1
:1002300008C0042AFAD203E011F8013B00F8013BA0
:10024000521EF9D27047D2B201E000F8012B491ECC
:10025000FBD270470022F6E710B513460A46044663
:100260001946FFF7F0FF204610BD30B505462A4677
:100270000B4612F8010B13F8014B08B1A042F8D05D
:100280001CB1002802D06D1CF1E7284630BD421C8D
:1002900010F8011B0029FBD1801A704730B50546C4
:1002A0000020034600E05B1C934205D2EC5CC85C76
:1002B000201A01D1002CF6D130BD000070B50F4DD1
:1002C00000B92868002412E00A4602E09E4203D0EA
:1002D000521C1378002BF9D1DAB2224305D02BB18E
:1002E00024B1002100F8011B04E00446401C0678FC
:1002F000002EE9D12860204670BD0000A400002037
:100300000FB400B58DB010A909900B9000914FF07B
:10031000FF300A9000200C90054806900548079091
:100320006A4609A80F9900F053F90DB05DF814FB67
:10033000ED0500080B0600082DE9FF5FD2E901A7D3
:100340004FF00008916999461446DDF838B04646EA
:1003500001988847054659EA0B0005D009E0A169D4
:10036000761C019888470546216A28468847002858
:10037000F5D1681C03D05FEACA7005D015E04FF0D4
:10038000FF3004B0BDE8F09F2068011D2160D0F867
:1003900000800AE05FEACA7001D108F8015BA16938
:1003A000761C7F1E019888470546002F1ADD681CC1
:1003B00018D0B9F1000F0DD0E81705EBD06042114D
:1003C00020F01F0059F822102A1A01209040014203
:1003D000E0D107E0BBF1000FDCD1216A2846884755
:1003E0000028D7D0E16901988847BBF1000F07D1F9
:1003F000002E05DD5FEACA7002D1002188F80010E6
:10040000A068B84203DDBBF1000F03D017B16FF055
:100410000100B6E73046B4E72DE9FE4F81EA030458
:1004200004F0004421F0004100944FF0000B23F051
:10043000004350EA01045ED052EA03045BD0C3F3E8
:100440000A54C1F30A552C44A4F2F3340194A0FBDE
:100450000254C1F3130141F48011C3F3130343F4B5
:10046000801301FB024400FB034E840A970A44EA0E
:10047000815447EA8357A4FB076802958D0A05FB60
:1004800007854FEA932C04FB0C542705029D4FEA85
:10049000065847EA1637B5EB08056EEB070C870ED2
:1004A000920E47EA811742EA8312A7FB0201B6EBDC
:1004B0000B0164EB00042B0D43EA0C335E1844EB94
:1004C0001C50DA465146E7FB0201C5F313044FEA1C
:1004D0000B3343EA14534FEA0432019C43EA060308
:1004E000A4F10C040294009CCDE900B400F032F9B0
:1004F00003B0BDE8F08F00200146F9E700F00042AC
:1005000030F000400AD0C10D01F56071C0F3160053
:1005100042EA0151C20840071143704700200146DA
:10052000704701F0004330B421F0004150EA01026D
:1005300006D00A0DA2F56072C1F31301002A02DC95
:1005400030BC00207047440F44EAC104C100E018E9
:1005500030BC00EBC25000F0B7B830B50B460146D6
:1005600000202022012409E021FA02F59D4205D352
:1005700003FA02F5491B04FA02F52844151EA2F1FC
:100580000102F1DC30BD202A04DB203A00FA02F13E
:10059000002070479140C2F1200320FA03F3194371
:1005A00090407047202A04DB203A21FA02F0002113
:1005B000704721FA02F3D040C2F120029140084373
:1005C0001946704702681144137801601846704755
:1005D000D160044951610449116200211161114641
:1005E00000F076BAC5050008C50A0008426842B1A5
:1005F000016811F8013B23B1521EC0E900121846F0
:1006000070470121C160881E704742685AB1C368B3
:10061000016843B983688B4205D0491E521CC0E96A
:100620000012002070474FF0FF3070470FB40023D6
:1006300000B589B00CA900910B996FF00042CB6016
:100640001E4B06931E4B07930423CDE901321D4A2E
:10065000089202466B46002000F050FC09B05DF89D
:1006600014FB70B586B006464FF0FF300091CDE91F
:100670000101002015460C4604903246694604A844
:10068000FFF7D4FF03460498211825B108B10A46A4
:1006900000E022462A6000280DD0002B02DD0098E1
:1006A000884208D0081B0094CDE90104324669460F
:1006B00004A8FFF7BBFF06B070BD0000ED05000801
:1006C0000B060008C50A00080029A8BF7047401C97
:1006D000490008BF20F00100704710B4B0FA80FC58
:1006E00000FA0CF050EA010404BF10BC704749B195
:1006F000CCF1200421FA04F411FA0CF118BF012105
:1007000021430843A3EB0C01CB1D4FEA00614FEAE4
:10071000102042BF002010BC704700EBC3501044B3
:100720000029A4BF10BC7047401C490008BF20F03E
:10073000010010BC704710B5141E73F1000408DAF4
:10074000401C41F1000192185B411A4301D120F095
:10075000010010BD2DE9F04D92469B4611B1B1FA52
:1007600081F202E0B0FA80F220329046FFF70BFFF0
:1007700004460F4640EA0A0041EA0B0153465A4636
:10078000084313D0114653EA010019D0C8F14002C2
:100790005046FFF707FF05460E465046594642466B
:1007A000FFF7F1FE084305D0012004E0204639465A
:1007B000BDE8F08D0020054346EAE0762C43374340
:1007C0000A986305E40AA0EB08000022FD0A44EA47
:1007D00047540A3002D500200146E9E70105101907
:1007E0006941DDE9084500196941BDE8F04DA2E71E
:1007F0002DE9FE4F804681EA0300C00F0C460090B1
:1008000021F0004123F00045B8EB0200A94105D2D8
:100810004046214690461C460B46024623F00040C7
:10082000104347D0270DC7F30A00C3F30A510290C3
:10083000401A019040286BDAC3F3130040F4801B88
:100840000098924620B10023D2EB030A63EB0B0B16
:1008500001985946C0F140025046FFF794FE064603
:100860000D4650465946019A00F01AF910EB08005F
:100870006141002487EA115284EAE7731A4340D0A9
:10088000009A62B3019A012A4FEA075215DC001B55
:1008900061EB02014FF0004202EA0752CDE900424B
:1008A000001C41F5801132462B46FFF753FF03B081
:1008B000BDE8F08F40462146F9E7001B61EB0201DD
:1008C000001C41F5801300185B412018A2F50017A9
:1008D00047EB030140EAD570B6196D4111E06D0890
:1008E0004FEA360645EAC0754FEA0752001B61EB36
:1008F0000201001C41F5801149084FEA300000193F
:10090000514132462B4603B0BDE8F04FFFF713BF0D
:100910000098012240000023D0EB020263EBE07359
:10092000009821464FEAE074B8EB000061EB040147
:10093000E9E783F000435BE781F0004158E72DE9E8
:10094000F04D81EA030404F0004B21F00045144609
:100950004FF0000A23F0004150EA050220D054EA8B
:1009600001021DD0C5F30A570246C5F31303C1F3B4
:100970001300C1F30A5640F4801543F48013A7EB2B
:100980000608101BD64608F2FD3873EB050002D3AB
:1009900008F1010801E092185B41B8F1000F03DA99
:1009A00000200146BDE8F08D00204FF4801106467E
:1009B00084460EE0171B73EB050705D3121B63EB90
:1009C000050306434CEA010C49084FEA300092182F
:1009D0005B4150EA0107EDD152EA030012D082EAEE
:1009E000040083EA0501084305D0101BAB4106D281
:1009F0000122002306E000224FF0004302E06FF0E6
:100A0000010253101AEB06004CEB085110EB0A00E0
:100A100041EB0B01BDE8F04DFFF78DBEC1F30A526B
:100A2000C1F3130140F2FF3341F480119A4202DA1C
:100A300000200146704740F233439A42A2F233420B
:100A400002DC5242FFF7AEBDFFF79DBD30B5041E7C
:100A500071F1000404DB4FF00044404264EB0101FB
:100A6000141E73F1000405DB1C464FF00043524294
:100A700063EB0403994208BF904230BD064C074D1A
:100A800006E0E06840F0010394E80700984710345E
:100A9000AC42F6D3FFF77CFB5C5F00087C5F00088C
:100AA000202A06DBCB17203A41FA02F043EAE07332
:100AB00006E041FA02F3D040C2F12002914008431F
:100AC00019467047C0B24FF4F05100F033BB00003C
:100AD0002DE9F34F8BB04FF0000801F10C000C46EC
:100AE0004FF0010B46460DF1080A019062690121A1
:100AF00001989047051E2DD0252D2CD0216A8847BE
:100B0000C0B16269012101989047216A8847002895
:100B1000F7D1411E62690198904700E0761CA169F7
:100B20000B988847216A88470028F7D1E1690B981C
:100B30008847DBE7A1690B9888470746A84201D19F
:100B4000761CD3E7E1690B9888477F1C02D1B8F186
:100B5000000F6FD046E1002762693D463946019893
:100B600090472A2804D16269012101989047012504
:100B7000DFF884926269012101989047A0F1300169
:100B80000A290AD24F45E5DC07EB870100EB410754
:100B9000303FDFD445F01005ECE7E90601D46FF0F3
:100BA00000476C280AD04C2814D0682815D06A2831
:100BB0000DD074281CD07A281AD01DE0626901215A
:100BC000019890476C2802D045F0040514E045F0E8
:100BD00002050DE045F020050AE062690121019857
:100BE0009047682802D045F0080505E045F4006507
:100BF0006269012101989047C4E9015765283DD0F9
:100C000019DC58287AD00CDC452837D004DC25289C
:100C100026D0412831D131E046282FD047282CD189
:100C20002CE05B2877D0612828D063287CD064280A
:100C300023D15AE0D0E06F2848D008DC66281DD0C8
:100C400067281BD0692821D06E2816D127E070288C
:100C500045D0732868D0752847D078280DD14DE04D
:100C6000A1690B988847054625283FF469AFE169DB
:100C70000B9888476D1C3FF46AAFB3E023466A4681
:100C80006FF001000B9900F039F99EE045F040004B
:100C90006060A80723464FF0000236D43EE0E80724
:100CA0007FF447AF2068011D21600068290501D548
:100CB00006701BE7290701D5068017E7A90703D5AA
:100CC000F117C0E9006111E706600FE745F0400049
:100CD0006060A80723464FF0080216D41EE040F6D5
:100CE0000E0125EA0100606016E045F040006060FA
:100CF000A80723464FF00A0207D40FE045F0400052
:100D00006060A80708D5234610226FF001000B99F8
:100D1000AFF3008059E007E0234610226FF0010096
:100D20000B99AFF3008050E04FF000094F464B465F
:100D3000632802D05B2806D040E0E80601D40120F9
:100D4000A06001273AE062690121019890475E287E
:100D500005D14FF001096269494601989047216920
:100D600039B900210A46534643F82120491C082975
:100D7000FADBB0B3216969B9C11700EBD162531135
:100D80000AEB830122F01F02821A01200B689040B7
:100D900003430B6062690121019890475D28E8D107
:100DA000B9F1000F09D00020514651F82020D2435C
:100DB00041F82020401C0828F7DB02AB22460097B0
:100DC0006FF001000B99FFF7B7FA00280CDA401C0E
:100DD00008D1BBF1000F05D04FF0FF300DB0BDE8DA
:100DE000F08FFFE74046F9E7E90701D108F1010874
:100DF00006444FF0000B79E6CCCCCC0C2DE9FF4F2C
:100E0000087881B09946FF2805D0491C2D2804D0C8
:100E10000024002308E000230BE00124F9E703EBA2
:100E2000830300EB4303491C0878FF28F7D104B182
:100E30005B4200200090147801462D2C01D02B2C11
:100E400004D1521C2D2C12D00024009400251678B9
:100E5000FF2E0ED00A24A0FB04C801FB048100274A
:100E600000FB0711521C16EB0C006941EFE701244F
:100E7000EBE7994450EA01020ED00024AA4D264621
:100E8000DFF8A88200F06AF982468B46B9F10000CB
:100E900009DAC9F100071BE001980021C0E900113F
:100EA00005B0BDE8F08F074612E0F80707D02246EC
:100EB0002B4630464146FFF7AFFA064688462246A3
:100EC0002B4610461946FFF7A7FA04460D467F1039
:100ED000002FEAD1B9F1000F324643465046594639
:100EE00002DAFFF72CFD01E0FFF796FA009A0AB14B
:100EF00081F00041019AC2E90001D1E72DE9FF4FDD
:100F00001F468DB0D7E901464FF0FF382E204546E9
:100F10004FF000090B90B9696D1C0E988847396A2B
:100F2000824688470028F6D1BAF1FF3F0AD024F460
:100F3000D064002E11DDBAF12B0F08D0BAF12D0FBD
:100F40000BD102E0404611B0ABE744F48064B969CC
:100F50006D1C0E9888478246761E6946600501D54D
:100F60002D2000E02B208DF8000001F1010B0DF188
:100F7000200809E0B9696D1C0E98884782460F98D1
:100F800044F40074761E0560002E02DDBAF1300FC5
:100F9000F0D00B998A453ED144F0800406E00F99C9
:100FA000681CA9F1010944F400740860B9696D1C5A
:100FB000761E0E98884782463028F0D02BE00B9999
:100FC0008A4505D1200603D444F08004761E18E03B
:100FD000504603F067FE08B30DF11301761E44F48A
:100FE00000748B4508D2AAF130000BF8010B2006E3
:100FF00007D5A9F1010003E0200602D409F10100A0
:101000008146A00502D50F99681C0860B9696D1C5E
:101010000E9888478246002ED1DC53E0002E51DD29
:10102000BAF1650F02D0BAF1450F4BD1A00549D5F1
:10103000B9696D1C24F44074761E0E988847824668
:10104000002E0CDD2B2804D0BAF12D0F07D144F46B
:101050008074B9696D1C0E9888478246761EE0053B
:1010600001D52D2100E02B2108F8011BCDF82C80A3
:1010700021E00DF12901761E44F4007488450CD25C
:10108000AAF1300010F0FF0088F8000002D10B999F
:10109000884509D908F1010806E0E00501D5244892
:1010A00001E042F20F708146B9696D1C0E988847C5
:1010B00082460F980560002E04DD504603F0F2FDD5
:1010C0000028D6D1F9690E988847FF208BF80000D8
:1010D00088F800000020069007904B466A4608A951
:1010E00006A8FFF78BFEA00502D46FF001002AE7E7
:1010F00014F0240F0AD0E00714D1DDE90612386895
:10110000031D3B600068C0E900120BE0DDE9060149
:10111000FFF707FA0146E00704D13868021D3A607C
:101120000068016028460EE7000024400000F03F00
:10113000F1D8FFFF7F2801D9002208E0064A02EB20
:101140005002C007127800D1120902F00F020120EC
:101150009040084070470000245E00080EB540F241
:10116000334202920022CDE900221346FFF7F2FA41
:1011700003B000BD10B50146806B026C12F0500F39
:1011800005D0026CD20626D500F0A7FB10BD016C7D
:1011900041F40071016401688A6812F0405F17D160
:1011A000027EAAB9CA6A12F4700F02D08A68520588
:1011B0000ED44A6822F020024A60016C21F480714A
:1011C0000164016CC90403D4016C41F001010164A4
:1011D00000F076FB10BD806BC26CBDE81040084685
:1011E000104710B5806B40210164416C41F004014F
:1011F000416400F072FB10BD10B5806B00F06CFB19
:1012000010BD0000014800F069BB0000040100208F
:10121000464910B54A6822F440324A604A68436839
:101220001A434A6001684A6822F480724A60016881
:101230004A68036942EA03224A6001684A6822F068
:1012400040724A6001684A6883681A434A600168CC
:101250008A6822F400628A6001688A68C3681A4357
:101260008A60816A6FF07062D14201688A6822F0F8
:1012700070628A6001688A680CD0836A1A438A6047
:1012800001688A6822F040528A6001688A68C36AED
:101290001A4301E022F040528A6001688A6822F015
:1012A00002028A6001688A68037E42EA43028A6019
:1012B00090F82010002901684A680FD042F40062BB
:1012C0004A6001684A6822F460424A6001684A68DC
:1012D000174C436A04EB43331A4301E022F40062E3
:1012E0004A600168CA6A22F47002CA620168CA6A66
:1012F000838B104C04EB03531A43CA6201688A685B
:1013000022F400728A6001688A6890F8303042EAFC
:1013100043228A6001688A6822F480628A600168D8
:101320008A68406942EA8020886010BD002301403D
:1013300000E0FFFF0000F0FFF0B52DED028BB0EEF6
:10134000408AB7EE001A83B028EE010A10EE900A28
:10135000BDEEC00A10EE107A20EE810ABDEEC00A82
:1013600010EE104AFFF7CAF805460E4618EE100AAE
:10137000FFF7C4F841EC100BCDE9005653EC102BED
:1013800016A003F071FB002F0ED04FF001034FF0B9
:10139000640203DD39464FF0010003E0C7F10001AC
:1013A0004FF0000002F086FE4FF49672002C11D030
:1013B0004FF0030303DD21464FF0010003E0C4F1C9
:1013C00000014FF0000003B0BDEC028BBDE8F0401F
:1013D00002F070BE03B0BDEC028BF0BD41646A75D3
:1013E0007374696E6720706C616E652077697468CC
:1013F0002070697463683A2025662C20726F6C6CCB
:101400003A2025660D0A0000FEE770B50D46064637
:10141000002400F033F904E0641CE4B2012000F081
:1014200019F92946304600F0F3FE012803D0642C58
:1014300010D2002407E0642CEED30BE0641CE4B26D
:10144000012000F007F92946304600F0E1FE18B10E
:10145000642C04D3012070BD642CEFD3FAE7002084
:1014600070BD70B50D460646002404E0641CE4B26D
:10147000012000F0EFF82946304600F0C9FE0128AF
:1014800001D1642CF2D3002404E0641CE4B20120F6
:1014900000F0E0F82946304600F0BAFE08B9642CA6
:1014A000F3D3282000F0D6F82946304600F0B0FEED
:1014B000012800D0002070BD2DE9F0410746002032
:1014C0000E4604464006050E31463846FFF7C9FF72
:1014D000641C2843E4B2082CF4D3BDE8F0812DE964
:1014E000FC471D4616468846814600F027F84146CF
:1014F0004846FFF78AFF10B10120BDE8FC870024B1
:101500006F4641464846FFF7D7FF3855641CE4B2A2
:10151000052CF6D39DF800109DF801009DF80330CE
:101520000A189DF8020003441A449DF804309A42B8
:1015300001D1317028700020DFE7000070B50C4643
:1015400000F0B0F8094D00222146284600F06DFE5B
:10155000142000F053FD01222146284600F065FECC
:10156000BDE870401E2000F075B800000004024085
:10157000014800F0D1BB000024040020014800F025
:10158000CBBB000044050020014800F0C5BB0000B3
:10159000E4040020014800F0BFBB00004C01002023
:1015A000014800F0B9BB0000840400200168182342
:1015B000CAB2103AB2FBF3F2054B6FF30901032AEA
:1015C0009B5CC36500D9091D816508467047000012
:1015D000045E000810B5014600208B698A6A4FF04E
:1015E000C07453B1B3F5005F15D072B1012A0CD0AD
:1015F000022A0AD0032A09D104E01AB1012A06D02E
:10160000022A03D1C96AC90100D5012010BDC96AE7
:10161000A142FAD010BD002AF7D0012AF2D0022A46
:10162000F3D0032AF3D010BD30B50468256825F443
:1016300080252560046863608368402B036803D0BD
:1016400099600068C26030BD9A600068C16030BDBA
:101650007047000070B5084C0546002021684862BC
:10166000204601F01FFA2068416AA942FCD3BDE878
:101670007040014801F092BAAC01002010B586B06C
:101680000C4614216846FEF7E5FD0020CDE9004038
:10169000012002906946024800F0C2FC06B010BD6D
:1016A0000004024010B586B00C4614216846FEF7CF
:1016B000D1FD0120CDE9004002900220039069464F
:1016C000024800F0ADFC06B010BD0000000402406E
:1016D00072B6FEE70B4810B5006800280ADDC82086
:1016E00000F08CFC4FF400720749084801F093FFAA
:1016F00007A003E0054801F0E7FB0DA0BDE810409E
:1017000003F0B2B9080000202B08002014030020C9
:101710004750532073696E676C6520726563656915
:10172000766520696E697469617465642E0A0000CB
:101730004750532055415254207265636569766560
:101740002061626F727465642064756520746F2017
:10175000696E73756666696369656E74207377690F
:1017600074636820636F756E742E0D0A00000000AC
:101770007047000078B50024009490F83C20012ABE
:1017800019D0012280F83C200A6807230568092A3D
:1017900013D9EE680A3A02EB420293409E43EE6090
:1017A0000B788A680A3B03EB43039A400368DD68C1
:1017B0002A43DA6010E0022078BD2E6902EB420273
:1017C00093409E432E610B788A6803EB43039A4053
:1017D00003681D692A431A614A681F23072A13D226
:1017E00005686E6B521E02EB820293409E436E634D
:1017F0000B790A885B1E92B203EB83039A4003685D
:101800005D6B2A435A6327E005680D2A12D22E6BBE
:10181000D21F02EB820293409E432E630B790A880B
:10182000DB1F92B203EB83039A4003681D6B2A43CC
:101830001A6311E0EE6A0D3A02EB820293409E4376
:10184000EE620B790A880D3B92B203EB83039A4058
:101850000368DD6A2A43DA62164B0568144A9D4222
:1018600006D10D68122D03D1556845F480055560E9
:1018700005689D4218D10B68102B01D0112B13D194
:10188000536843F400035360096810290CD10A49D6
:101890000A4A0968B1FBF2F101EB8101490000E05D
:1018A000491E00910029FBD180F83C40002078BD02
:1018B00000230140002001404400002040420F006E
:1018C00000680349884202D102490120087070472C
:1018D00000200140000000207047704770B50446AA
:1018E00000680668456816F0020F05F020012AD04E
:1018F00049B3216CC90603D4216C41F40071216401
:10190000816811F0405F17D1217EA9B9C16A11F435
:10191000700F02D0816849050ED4416821F0200182
:101920004160206C20F480702064206CC00403D4DB
:10193000206C40F0010020642046FFF7C1FF2168C1
:101940006FF01200086016F0040F05F0800132D02D
:1019500089B3206CC00603D4206C40F4005020648E
:101960002068816811F4401F1ED1816B11F4401F63
:1019700002D08168490517D44168490514D48168AB
:1019800011F0405F10D1217E71B9416821F08001D2
:101990004160206C20F480502064206CC00503D48A
:1019A000206C40F0010020642046FFF7E1FE216832
:1019B0006FF00C00086016F0010F05F040010FD029
:1019C00071B120680068C0070AD0206C40F48030F4
:1019D0002064204600F043F821686FF001000860A1
:1019E00016F0200F05F080610ED000290CD0606C3D
:1019F00040F00200606420686FF02005056020461A
:101A0000FFF76BFF2068056070BD70B504004FF0F4
:101A1000000503D0206C002610B107E0012070BD46
:101A2000204600F01DF8666484F83C60206CC00617
:101A300010D4206C20F4885040F00200206420462E
:101A4000FFF7E6FB6664206C20F0020040F0010026
:101A5000206400E0012584F83C60284670BD704792
:101A600070B586B0064614216846FEF7F3FB21499F
:101A7000306888423CD120480025016841F48071DB
:101A80000160006800F4807005901B4814380168FC
:101A900041F0040101600068694600F0040005900F
:101AA0001F2000900320CDE90105144800F0B8FA8A
:101AB000144C1348C4E900050015A560C4E903509F
:101AC000400060618000A0614011C4E90705204624
:101AD000656200F0F1F908B1FFF7FAFDB463002286
:101AE00005211220A66300F013FC122000F002FC76
:101AF00006B070BD0020014044380240000802409A
:101B0000106402404C010020F8B5044600200E4647
:101B1000009094F83C10012907D0012184F83C1072
:101B200021688B68DB0702D011E00220F8BD8B68CA
:101B300043F001038B604049404B0968B1FBF3F16E
:101B400001EB410100E0491E00910029FBD1216811
:101B50008B68DB0503D58B6823F480738B60216869
:101B60008B68DB075DD0236C40F20165AB4343F427
:101B7000807323644968490505D5216C21F400511F
:101B800041F480512164216CC90404D5616C21F0B9
:101B90000601616400E0606484F83C00A16B2948A0
:101BA000274DC863A16B28480864A16B2748C86407
:101BB00021686FF0220008602068416841F0806170
:101BC00041602068816841F480718160216813461A
:101BD00032464C31A06B00F0D9F968681C49C00648
:101BE000206806D0884224D1816811F0405F13D06C
:101BF0001FE08842F8D0174A904203D1D1F804235D
:101C0000D206F1D0144A904213D1D1F8041301F056
:101C10001F011029E8D30CE0816841F08041816008
:101C200007E0206C40F010002064606C40F0010080
:101C300060640020F8BD00004400002040420F0016
:101C40000023014075110008F9110008E311000894
:101C50000020014000210140002201402DE9F04117
:101C60000446876D00F0E6FA064694F83500002534
:101C7000022806D08020606584F834500120BDE839
:101C8000F0812068016821F0160101602068416937
:101C900021F080014161206C08B9A06C20B120685E
:101CA000016821F0080101602068016821F001014C
:101CB00001600CE000F0BEFA801B052807D9202047
:101CC0006065032084F8350084F83450D7E7206835
:101CD0000068C007EED194F85C103F208840B860DF
:101CE000012084F8350084F834500020C7E790F8CC
:101CF0003510022903D0802141650120704705215C
:101D000080F835100068016821F0010101600020B1
:101D10007047406D704700002DE9F84304464FF0CE
:101D20000009CDF8009063484FF41651A56D006886
:101D3000B0FBF1F72E6894F85C10082000FA01F16E
:101D400031420FD021680A6852070BD50A6822F089
:101D500004020A6094F85C108840A860606D40F04E
:101D60000100606594F85C104FF0010808FA01F07A
:101D7000304208D021684969090604D5A860606D21
:101D800040F00200606594F85C1004208840304206
:101D900008D021680968890704D5A860606D40F003
:101DA0000400606594F85C1010208840304218D020
:101DB00021680968090714D5A860206801684903EB
:101DC00004D50068000308D5A16C07E00168C905C7
:101DD00003D4016821F008010160216C09B120469B
:101DE000884794F85C1020208840304231D0216828
:101DF0000968C9062DD5A86094F835000528206823
:101E0000016806D0490347D5006800031DD4616C02
:101E10001CE021F0160101602068416921F0800179
:101E20004161206C08B9A06C20B12068016821F0E4
:101E30000801016094F85C103F208840A86084F895
:101E4000358084F83490216D1FE0E16B09B12046A4
:101E50008847606D00282BD0606DC00714D0052026
:101E600084F835002068016821F0010101600098C4
:101E7000401C0090B84203D820680068C007F6D123
:101E800084F8358084F83490E16C002910D001B0DA
:101E90002046BDE8F04308470168C905D5D401686C
:101EA00021F01001016084F8358084F83490CCE78B
:101EB000BDE8F883440000202DE9F041044600F01D
:101EC000B9F906465CB1022084F83500002584F893
:101ED00034502068016821F0010101600DE001200B
:101EE000BDE8F08100F0A6F9801B052805D9202067
:101EF0006065032084F83500F2E720680068C007B9
:101F0000F0D12268116820480140D4E90103184348
:101F1000D4E903363343184363691843A36918436C
:101F2000E3691843236A18430843616A042903D10B
:101F3000D4E90B1319430843106020684069666AAE
:101F400020F0070130460E43012704280CD1A06A77
:101F50000643E06A40B12046FFF73CFB20B1402039
:101F6000606584F83570BAE7206846612046FFF75F
:101F70001DFB94F85C203F2191408160656584F8E9
:101F800035700020ACE700003F8010F02DE9F041F3
:101F90000446866D90F83400002501280DD00120FC
:101FA00084F8340094F835700020012F07D084F8AD
:101FB000340002252846BDE8F0810220FBE7022715
:101FC00084F8357060652046FFF72EFB94F85C10AE
:101FD0003F208840B0602068016841F01601016030
:101FE000206C20B12068016841F008010160206880
:101FF000016841F001010160DCE7000070B50446B2
:1020000000F018F90546601C02D00448007804442A
:1020100000F010F9401BA042FAD370BD3800002038
:102020002DE9F84FDFF8BCA10022012503264FF06F
:102030000F090AF1040BAAF1040E00BF0B6805FAA0
:1020400002F42340A34270D10F7907F00307012F58
:1020500001D0022F16D187684FEA420806FA08FC21
:1020600027EA0C07D1F80CC00CFA08FC4CEA070C64
:10207000C0F808C04768A7430C79C4F30014944023
:102080003C4344600C79E443A4070AD0C4684FEA97
:10209000420C06FA0CF7BC438F6807FA0CF727438B
:1020A000C7600C7904F00304022C12D1D40800EBB1
:1020B000840CDCF820405707FF0E09FA07F824EAE1
:1020C0000804D1F8108008FA07F848EA0408CCF8A8
:1020D000208004684FEA420C06FA0CF7BC430F79E3
:1020E00007F0030707FA0CF7274307604C6814F45E
:1020F000403F70D03C4C276847F4804727602468F5
:1021000022F0030704F480440094384C07EB040CDD
:10211000DCF8084897074FEA177809FA08F7BC4334
:10212000334FB84202D1002724E054E0314FB84287
:1021300001D101271EE0304FB84201D1022719E03A
:102140002E4FB84201D1032714E02D4FB84201D1E0
:1021500004270FE02B4FB84201D105270AE02A4F90
:10216000B84201D1062705E0284FB84201D1072720
:1021700000E0082707FA08F72743CCF80878DAF8D0
:1021800000405746D1F804C09C435FEACC2C00D5F0
:102190001C433C60DBF800405F46D1F804C09C4320
:1021A0005FEA8C2C00D51C433C60DEF8004077468B
:1021B000D1F804C09C435FEA8C3C00D51C433C60D2
:1021C000084F083F3C68D1F804C09C435FEACC3C10
:1021D00000D51C433C60521C102AFFF42FAFBDE811
:1021E000F88F0000083C01404438024000300140B4
:1021F000000002400004024000080240000C0240BF
:10220000001002400014024000180240001C02406E
:102210000069084000D001207047426921EA0203AA
:102220000A4043EA0241816170470AB18161704707
:102230000904FBE70148806870470000380000206F
:10224000024881680278114481607047380000209C
:102250000B4810B5016841F400710160016841F458
:1022600080610160016841F480710160032000F029
:102270006FF80F2000F006F800F024F8002010BDE1
:10228000003C024070B50D4D04464FF47A71287839
:10229000B1FBF0F00A490968B1FBF0F000F00AFB6D
:1022A00048B9102C07D200222146501E00F030F809
:1022B00000206C6070BD012070BD0000380000205F
:1022C000440000200A4808B5016841F480410160DB
:1022D000006800F4804000900548001F016841F04C
:1022E00080510160006800F08050009008BD00003F
:1022F00044380240002809DB00F01F020121914010
:102300004009800000F1E020C0F800117047000093
:10231000F0B40E4B1B680C46C3F30223C3F1070550
:10232000042D00D90425191D072901D2002300E03E
:10233000DB1E012606FA05F1491E214099409E4008
:10234000761E16403143F0BC02F0B2BB0CED00E04B
:10235000064900F0070208684FF6FF03184040EAFC
:102360000220034A10430860704700000CED00E0B3
:102370000000FA052DE9F0470E46050065D0DFF8AC
:102380001481D8F80000F7B200F00700B04207D27D
:1023900088F80070D8F8000000F00700B04254D16F
:1023A00028683D4C810712D5400703D5206840F4CA
:1023B000E05020602878000703D5206840F4604092
:1023C00020602068A96820F0F00008432060287889
:1023D000C0072DD0304968680839012812D002287A
:1023E00013D0032811D00968890700292DDA216844
:1023F00021F0030101432160FFF71CFF814641F2F8
:10240000883A0EE009688903EFE709688901ECE77B
:10241000FFF710FFA0EB0901514502D90320BDE8E9
:10242000F0872068696800F00C00B0EB810FEFD1F5
:10243000D8F80010404601F00701B14207D90770F3
:10244000006800F00700B04201D00120E7E72878DB
:10245000400705D52068E96820F4E0500843206073
:102460002878000706D52068296920F4604040EAF2
:10247000C100206000F038F82168084AC1F3031158
:10248000515CC8400649086006480068FFF7FAFE3C
:102490000020C4E7003C0240083802400C5E0008FF
:1024A000440000203C0000200448054900680968F9
:1024B000044AC1F38221515CC840704744000020A7
:1024C000083802401C5E0008044805490068096895
:1024D000044AC1F34231515CC840704744000020B7
:1024E000083802401C5E0008154810B5006810F05E
:1024F0000C02144813D04110042A0FD0082A0ED120
:102500000F4C241F2268236802F03F025B0207D5AC
:102510002068C0F38810A0FB010106E0084610BD4A
:102520002168C1F38811A1FB00010023FDF748FEDB
:102530002168C1F30141491C4900B0FBF1F010BD15
:10254000083802400024F4002DE9F84F04006ED052
:102550002078DFF84C93C007A9F104054AD009F1AF
:1025600004000168C1F38101012908D00068C0F3AB
:10257000810002280AD1D9F80000400206D5286857
:10258000800337D560680028E1D033E06068B0F59B
:10259000803F10D0B0F5A02F286810D020F48030F4
:1025A0002860286820F4802028606068A8B1FFF7C0
:1025B00041FE06460DE0286840F48030F4E740F420
:1025C00080202860F7E700BFFFF734FE801B6428F7
:1025D00073D828688003F7D50CE0FFF72BFE06467A
:1025E00005E000BFFFF726FE801B6428F0D82868AE
:1025F0008003F7D42078DFF8AC8280074FF0000A20
:102600003ED5A748001D016811F00C0F08D00068E6
:10261000C0F3810002280BD1D9F80000400207D492
:102620002868800716D5E068012800D112E033E160
:10263000E068B8B10120C8F80000FFF7FBFD0646CE
:1026400005E000BFFFF7F6FD801B0228C0D8286810
:102650008007F7D52868216920F0F80040EAC1001A
:1026600028600DE0C8F800A0FFF7E4FD064604E08E
:10267000FFF7E0FD801B02281FD828688007F7D4E9
:102680002078000722D5864F87486169703771B17D
:1026900001210160FFF7CEFD064604E0FFF7CAFD09
:1026A000801B022809D838688007F7D50EE0C0F8EB
:1026B00000A0FFF7BFFD064605E082E0FFF7BAFD88
:1026C000801B02287DD838688007F7D4207840071F
:1026D00068D5DFF8CCB100270BF13C0BDBF800002C
:1026E000C0000BD4DBF8001041F08051CBF8001093
:1026F000DBF80000012700F0805000906B4E30683E
:10270000C00510D4306840F480703060FFF792FD4F
:10271000009005E0FFF78EFD0099401A022850D87E
:102720003068C005F6D55E4EA0686C3601280FD023
:102730000528306810D020F001003060306820F0AB
:1027400004003060A068B8B1FFF774FD00900FE09E
:10275000306840F00100F4E740F004003060F7E733
:10276000FFF768FD0099411A41F28830814266D82E
:1027700030688007F4D50EE0FFF75CFD009007E0BD
:10278000FFF758FD0099411A41F28830814256D82E
:1027900030688007F4D42FB1DBF8001021F08051AD
:1027A000CBF80010A069C8B33D49091D0968C1F301
:1027B000810102294AD00228504607D0C8F860009B
:1027C00000E03CE0FFF736FD04463BE04746C8F832
:1027D0006000FFF72FFD064605E000BFFFF72AFD6A
:1027E000801B02282BD828688001F7D4D4E9070180
:1027F0000843A16A2E4A490802EB0141626A41EA94
:102800008211084394F82C1040EA0161C9F80010C5
:1028100001203866FFF70EFD044606E03EE000BFEB
:10282000FFF708FD001B022809D828688001F7D5AA
:1028300034E000BFFFF7FEFC001B022802D9032092
:10284000BDE8F88F28688001F4D427E00128F7D08C
:10285000D9F80000E26900F4800191421CD1226A9B
:1028600000F03F01914217D147F6C071626A014002
:10287000B1EB821F10D1A26A4FF0FF3300F4403158
:1028800003EB5202B1EB024F06D194F82C1000F08A
:102890007060B0EB016F01D00120D1E70020CFE7DD
:1028A0000438024000004742800E4742007000405A
:1028B0000000FFFF10B5401EB0F1807F01D3012062
:1028C00010BD4FF0E02460610F21601702F0F0F8B6
:1028D0000020A06107202061002010BD70477047D4
:1028E00070B590F83C20012A32D0012480F83C4099
:1028F000022280F83D2003685A689D6822F0700625
:102900000A6832435A60134B02689A4214D0B2F1FB
:10291000804F11D0104B9A420ED0104B9A420BD0E0
:102920000F4B9A4208D00F4B9A4205D00E4B9A4259
:1029300002D00E4B9A4204D1496825F08003194316
:10294000916080F83D40002180F83C10084670BD41
:10295000022070BD0000014000040040000800405B
:10296000000C0040000401400040014000180040FD
:1029700010B5040003D094F83D0010B107E0012029
:1029800010BD002084F83C00204600F01FF8022013
:1029900084F83D00211D206801F03AFD012084F8F3
:1029A000460084F83E0084F83F0084F8400084F834
:1029B000410084F8420084F8430084F8440084F81D
:1029C000450084F83D00002010BD000008B50168F6
:1029D0002F48B1F1804F11D02E4A91421DD101688C
:1029E00041F0020101600068002200F00200009046
:1029F00003211D20FFF78CFC1D2043E0016841F0FE
:102A0000010101600068002200F001000090114601
:102A10001C20FFF77DFC1C2034E01F4A91420ED1A0
:102A2000016841F0040101600068002200F0040028
:102A3000009003211E20FFF76BFC1E2022E0174AA6
:102A400091420ED1016841F0080101600068002246
:102A500000F00800009011463220FFF759FC3220A8
:102A600010E00F4A914211D1016841F0100101605C
:102A70000068002200F01000009003213620FFF7CC
:102A800047FC3620BDE80840FFF734BC08BD000015
:102A9000403802400004004000080040000C0040A4
:102AA0000010004090F83D10012901D0012070472E
:102AB000022180F83D1000681149884214D0B0F11D
:102AC000804F11D00F4988420ED00F4988420BD059
:102AD0000E49884208D00E49884205D00D498842E7
:102AE00002D00D49884204D1816801F0070106290E
:102AF00003D0016841F0010101600020704700002F
:102B0000000001400004004000080040000C0040AC
:102B100000040140004001400018004090F83D10C2
:102B2000012901D001207047022180F83D10016881
:102B3000CA6842F00102CA6000681149884214D094
:102B4000B0F1804F11D00F4988420ED00E49884213
:102B50000BD00E49884208D00D49884205D00D4956
:102B6000884202D00C49884204D1816801F00701F3
:102B7000062903D0016841F001010160002070477F
:102B8000000001400004004000080040000C00402C
:102B900000040140004001400018004001680A6A3A
:102BA00041F211131A4207D10A6A9B101A4203D14B
:102BB0000A6822F001020A60012180F83D1000201D
:102BC000704770B5044690F83C000025012817D0E6
:102BD000012684F83C60022084F83D002068826869
:102BE00022F0770222F47F4282600868502838D0B1
:102BF0000DDC20284FD005DC90B3102811D14AE01D
:102C0000022070BD302846D040280AD13BE0602821
:102C10002FD070280DD0B0F5805F03D0B0F5005FE5
:102C200012D0012584F83D60002084F83C0028463D
:102C300070BDCB68D1E90121206801F04DFC20680E
:102C4000816841F0770109E0CB68D1E90121206872
:102C500001F042FC2068816841F480418160E1E735
:102C600019E0CA684968206801F048FC50212068D2
:102C700006E0CA684968206801F051FC60212068BC
:102C800001F034FCCEE7CA684968206801F036FCE0
:102C900040212068F4E7226801461046F0E77047BB
:102CA00070B50446006801694FF00005C943890703
:102CB00015D4C168C943890711D4E91E01610120F7
:102CC0002077206880698007204602D0FFF7E7FF61
:102CD00004E000F098F8204600F096F82577206888
:102CE0000169C943490717D4C168C943490713D4C7
:102CF0006FF004010161022020772068806910F4E0
:102D0000407F204602D0FFF7CAFF04E000F07BF8C6
:102D1000204600F079F8257720680169C943090742
:102D200016D4C168C943090712D46FF008010161C4
:102D3000042020772068C0698007204602D0FFF772
:102D4000AEFF04E000F05FF8204600F05DF8257764
:102D500020680169C943C90617D4C168C943C906B7
:102D600013D46FF010010161082020772068C0693A
:102D700010F4407F204602D0FFF791FF04E000F0FE
:102D800042F8204600F040F8257720680169C943E1
:102D9000C90708D1C168C943C90704D1891E0161A7
:102DA000204600F033F820680169C943090609D4B8
:102DB000C168C943090605D46FF08001016120464E
:102DC000FFF78CFD20680169C943490609D4C16831
:102DD000C943490605D46FF040010161204600F067
:102DE00071F820680169C94389060BD4C168C943D9
:102DF000890607D46FF0200101612046BDE87040CC
:102E0000FFF76DBD70BD70477047000010B50068DA
:102E10001849884204D118480168491C016010BD56
:102E2000164A0121904208D1154801704A02BDE8B6
:102E300010401449144800F0D9BB144A9042EED116
:102E400013480170134802681348002A00DD01701E
:102E500000780028E3D000F047FD0028DFD10F48BC
:102E60000068B0F1804FDADABDE810400CA001F044
:102E7000FBBD0000000C00400C00002000100040D2
:102E8000600000202B0800201403002000040040F4
:102E90000100002008000020040000204C00002059
:102EA0004B656C6C6572206461746120697320628B
:102EB000656C6F7720312C20B1BBB4F2C0CC0D0A09
:102EC000000000007047704770B5044620680C3061
:102ED00050E8001F21F4907140E80012002AF5D15B
:102EE0002068143050E8001F21F0010140E8001272
:102EF000002AF5D1206B012809D120680C3050E858
:102F0000001F21F0100140E80012002AF5D12068CE
:102F100040694FF00005400615D52068143050E890
:102F2000001F21F0400140E80012002AF5D1A06BFB
:102F300048B10565A06BFEF791FE20B1A06BFEF7CE
:102F4000E8FE202806D0E585202084F83E00256391
:102F5000002070BD10202064032070BD10B5044611
:102F60000068406994F83D10C0F3C010212911D1C8
:102F700080B12068143050E8001F21F0800140E843
:102F80000012002AF5D1606B08B1FEF767FE2046FB
:102F900001F080FB2068406994F83E10C0F3801077
:102FA000222911D180B12068143050E8001F21F08F
:102FB000400140E80012002AF5D1A06B08B1FEF7ED
:102FC0004DFE204601F03FFB002010BD7047000081
:102FD000F8B5016804460868CA684B6910F00F0F1D
:102FE0004FF000055AD003F0010602F49077374302
:102FF00065D0C10705D0D10503D5216C41F0010191
:103000002164410705D5D90703D0216C41F00201A5
:103010002164810705D5D90703D0216C41F0040153
:103020002164010707D502F02001314303D0216C50
:1030300041F008012164216C00293BD0800604D5B1
:10304000900602D5204601F033FB20684069216CD0
:10305000C0F3801001F00801014320462BD001F09D
:10306000F2FA20684069400621D52068143050E803
:10307000001F21F0400140E80012002AF5D1A06BAA
:10308000A8B16C490165A06BFEF731FE002811D094
:10309000A06B016D01B0BDE8F040084783060ED576
:1030A00093060CD52046BDE8F84001F001BB204650
:1030B000FFF78CFFF8BDFFF789FF2564F8BD266B8D
:1030C0002023012E79D1C60677D5D60675D5086896
:1030D000486800904869400640D5A16B0868406880
:1030E0000004000CEAD0A28D8242E7D9E085C869CD
:1030F000B0F5807F2DD020680C3050E8001F21F4FF
:10310000807140E80012002AF5D12068143050E8A0
:10311000001F21F0010140E80012002AF5D12068CB
:10312000143050E8001F21F0400140E80012002A4E
:10313000F5D184F83E30256320680C3050E8001F3C
:1031400021F0100140E80012002AF5D1A06BFEF733
:1031500085FDA08DE18D401A81B229E0A08DE18D21
:10316000401A81B2E08D0028A8D00029A6D020689E
:103170000C3050E8002F22F4907240E80026002E18
:10318000F5D12068143050E8002F22F0010240E809
:103190000026002EF5D184F83E30256320680C30DF
:1031A00050E8002F22F0100240E80023002BF5D158
:1031B0002046FFF788FEF8BDFFE705062BD515066C
:1031C00029D594F83D002128F5D1A068B0F5805F9D
:1031D00001D12069B0B1206A411C216221680078C8
:1031E0004860E08C401E0004000CE084E3D12068BD
:1031F000C16821F08001C1602068C16841F04001D0
:10320000C160D8E7206A0088C0F308004860206ADF
:10321000801C2062E5E74006CDD55006CBD5CA68B4
:10322000204622F04002CA6084F83D3000F0F0FAF7
:10323000C1E700005145000870B5040004D094F8BF
:103240003D00002510B106E0012070BD84F83C501F
:10325000204600F023F8242084F83D002068C1684F
:1032600021F40051C160204601F082FA2068016912
:1032700021F4904101612068416921F02A014161F6
:103280002068C16841F40051C1602564202084F8A1
:103290003D0084F83E00002070BD00002DE9F04F95
:1032A00087B0054614216846FCF7D4FF9548DFF83F
:1032B000508210380222D5F800C00024914B03211F
:1032C000DFF844E2960607154FF4807AC4453CD1F6
:1032D000D3F800C04CF4002CC3F800C01B6803F402
:1032E00000230593036843F001030360006800F0C6
:1032F000010005908DE816000820CDE9031069460D
:103300007046FEF78DFEDFF8088280494046C8F817
:103310000010C0E90164C0E90347C8F81440C0E9DF
:10332000064AC8F82040C8F82440FEF7C5FD08B199
:10333000FEF7CEF9C5F83880002201213420C8F804
:103340003850FEF7E5FF342049E0DFF8C881DFF8A8
:10335000C8B14FF00709C44546D16A4B1B1DD3F8CD
:1033600000C04CF0100CC3F800C01B6803F0100341
:103370000593036843F0020303600068CDE902414E
:1033800000F002000590C020CDE90002CDF81090B9
:1033900069465846FEF744FEDFF874815F4908F13C
:1033A00060084046C8F80010C0E90164C0E903475E
:1033B000C8F81440C0E9064AC8F82040C8F82440BC
:1033C000FEF77AFD08B1FEF783F9C5F838800022D0
:1033D00001212520C8F83850FEF79AFF2520FEF776
:1033E00089FF07B0BDE8F08FDFF83481C44543D1D1
:1033F000D3F800C04CF4003CC3F800C01B6803F4D1
:1034000000330593036843F0010303600068CDE9CE
:10341000024100F0010005900C20CDE90002CDF83A
:10342000109069467046FEF7FBFDDFF8E4803749EF
:1034300008F1C00848314046C8F80010C0E90164EE
:10344000C0E90347C8F81440C8F81840C8F81C4041
:10345000C8F82040C8F82440FEF72EFD08B1FEF75A
:1034600037F9C5F83880002201212620C8F83850E5
:10347000FEF74EFF2620B2E7DFF8A880C445B0D1A2
:10348000D3F800C04CF4802CC3F800C01B6803F4D0
:1034900080230593036843F0020303600068CDE9CD
:1034A000024100F0020005904FF44060CDE90002B7
:1034B000CDF8109069465846FEF7B2FDDFF86880F7
:1034C000124940461831E0E80216402192C040F807
:1034D00014498461C46104624046C8F82440FEF780
:1034E000EBFC08B1FEF7F4F8C5F834800022114671
:1034F0002720C8F83850FEF70BFF27206FE70000A1
:10350000004C004040380240000002404060024051
:10351000240400200010014000040240886402409E
:103520000044004000480040440500202DE9F84FC9
:10353000044690F83E009A4616460D46202853D180
:10354000FDB1F6B194F83C0001284DD0012084F87B
:103550003C0000272764222084F83E002763FEF702
:1035600069FEA6858146E685A0684FF480584045EF
:1035700001D1206940B12E465FF0000584F83C700F
:1035800027E00120BDE8F88F0026F7E74B46002230
:1035900020212046CDF800A001F0D7F908B1032082
:1035A000F0E726B1A06840451BD038B108E020689C
:1035B0004068C0F3080025F8020B07E0206980B1DD
:1035C0002068406800F07F0006F8010BE08D401E87
:1035D000E085E08D0028D9D1202084F83E0000202D
:1035E000D0E720684068EFE70220CBE790F83E3054
:1035F000202B0ED159B152B190F83C30012B08D09C
:10360000012380F83C300023036301F037B9012027
:1036100070470220704790F83E30202B0ED159B1F0
:1036200052B190F83C30012B08D0012380F83C3097
:103630000023036301F06CB901207047022070473A
:103640002DE9F05F2B4A016891424AD10025DFF84D
:10365000AC80DFF8A4902A4CAA4608F1100B4F1555
:1036600019F80560242E12D02088B84205D280B205
:1036700008EB0001401C0E74208080B2062812D393
:10368000062220A15846FCF709FE20B105E050466D
:10369000A4F800A0EBE70A2E10D02088B84202D38D
:1036A00040F2FF1020806D1CADB2BD42D8D33A4627
:1036B000BDE8F05F10491548FFF7ADBF22885646B8
:1036C00008EB0200594680F810A01148521CFCF784
:1036D000A8FD0F49012081F800020E4926800870DC
:1036E000E1E70D4A914203D1BDE8F05F00F03EB939
:1036F000BDE8F09F004C00402B0800202C0A002061
:103700005C00002024474E524D430000140300206B
:1037100000060020600000200010014070470000FB
:103720002DE9F843044690F83D001F4616460D4625
:1037300020284CD1C5B1BEB194F83C00012846D038
:10374000012084F83C004FF00008C4F8408021209C
:1037500084F83D00FEF76EFDA6848146E684A068ED
:10376000B0F5805F03D004E00120BDE8F883206954
:1037700028B12E465FF0000584F83C800EE000265C
:10378000FAE78021204601F0E0F8A0B9AEB116F8C2
:10379000010B21684860E08C401EE084E08C4B46C1
:1037A0004FF0000200970028EBD14FF04001204677
:1037B00001F0CBF830B10320D7E735F8020BC0F3A6
:1037C0000800E6E7202084F83D000020CDE7022035
:1037D000CBE790F83D30202B18D1A9B1A2B190F8D9
:1037E0003C30012B12D001628284C284002101642A
:1037F000212280F83D2080F83C100068C16841F02B
:103800008001C1600020704701207047022070478E
:10381000034A0168914201D100F032B970470000BB
:1038200000100140FEE70000F0B5214CFDB06078CB
:1038300021283BD31F4E002505EB450000EBC500BA
:103840000719A178F878884224D14FF4FA716846B4
:10385000FCF700FD387953281CD157F8050F30606C
:10386000786870609FED141A9FED140A002000BF65
:1038700036F9101000EE901A04EB8001401CF8EEAF
:10388000E00AC0B2032860EE810A60EE800AC1ED52
:10389000090AEDD36D1CEDB2042DCDD321227DB0EC
:1038A000E11CBDE8F0400648FFF7A0BE7DB0F0BDCA
:1038B000B805002054000020000000380000344308
:1038C0009C030020014890ED090A7047B8050020CC
:1038D000014890ED0A0A7047B8050020014890EDB4
:1038E0000B0A7047B805002070B5FEF7A3FC1D4C0D
:1038F000A168884202D2FEF79DFCA06061784FF477
:103900007A7631B100200225012910D0022921D177
:1039100012E0FEF78FFCA168401AB0421ED3492086
:1039200000F046F8FEF786FCA060012018E0217840
:1039300021B96070002070BD217889B1FEF77AFC52
:10394000A168401AB04209D30748FFF7BDFA3020FA
:1039500000F02EF8FEF76EFCA0606570012070BDCF
:103960006070FBE7480000205803002010B50D4BA5
:10397000002200681B681146984212D10A480B4B7E
:103980004478492C0CD1447964F30701047964F339
:103990000F21C478807864F3174160F31F61596088
:1039A0001A7010BD58030020A40500204800002014
:1039B0002DE9FC470446012211022748FEF735FC99
:1039C000264800210222016041600181C0F80A10EE
:1039D000C0F80E10418201210A30302C0170447071
:1039E00003D0492C01D181700322DFF870C0002779
:1039F000E9460DF1040A0CF10A0C4AF201064FF6F1
:103A0000FF713D4610E07B191CF80330594000233C
:103A10005FEAC1784FEA510100D071405B1CDBB214
:103A2000082BF5D36D1CEDB29542ECDB0D0A89F83D
:103A300000508AF800109DF800108154521C9DF827
:103A40000410815406480549521C04700A31054887
:103A5000FFF7BFFEBDE8FC8700040240A40500207C
:103A6000480000205803002010B56420FEF7C6FA75
:103A70003020FFF79DFFBDE810406420FEF7BEBA7E
:103A800010B50D4900680968884214D100224FF42E
:103A900080710A48FEF7C9FB09480078492808D018
:103AA000302808D10A22BDE8104006490248FFF735
:103AB000B2BD0922F7E710BD580300200004024000
:103AC00048000020A405002010B50E4886B0002450
:103AD000016841F0020101600068142100F0020059
:103AE00005906846FCF7B6FB4FF48070009001200B
:103AF000CDE90104694604480394FEF791FA06B043
:103B000010BD000030380240000402407FB500259F
:103B10002B480095019502952849039501600124E1
:103B20004FF480310461C0E90115047680F820501B
:103B30002449C0E90A150526C661C56080F83040F1
:103B40004461FDF762FF08B1FDF7C2FD0A208DE870
:103B5000310069461A48FDF70DFE08B1FDF7B8FDC2
:103B60000B2000900220019069461548FDF702FEE7
:103B700008B1FDF7ADFD0C200090032001906946CF
:103B80000F48FDF7F7FD08B1FDF7A2FD0D200090ED
:103B90000420019069460A48FDF7ECFD08B1FDF7E5
:103BA00097FD0E20CDE9000669460548FDF7E2FDC8
:103BB000002801D0FDF78CFD7FBD000000200140F2
:103BC000040100200100000F1D4808B5016841F400
:103BD00080010160016801F480010091016841F4F5
:103BE000001101600068002200F400100090042120
:103BF0000D20FEF78DFB0D20FEF77CFB002204213B
:103C00000E20FEF785FB0E20FEF774FB0022042138
:103C10001020FEF77DFB1020FEF76CFB0022072131
:103C20003820FEF775FB3820FEF764FB00220421E4
:103C30004420FEF76DFBBDE808404420FEF75ABB68
:103C4000303802402DE9F04186B014216846FCF777
:103C500001FB30480024016841F004010160016863
:103C600001F004010591016841F0800101600168E3
:103C700001F080010591016841F0010101600168D6
:103C800001F001010591016841F002010160006845
:103C9000214F00F002004FF47F5505900022294685
:103CA0003846FEF7C2FADFF87480BE1500223146AE
:103CB0004046FEF7BAFA00950125CDE90154694660
:103CC00038460394FEF7ACF948F22000CDE9000431
:103CD000694638460294FEF7A3F94FF4C070CDE967
:103CE000000469460E480294FEF79AF940F2332028
:103CF000CDE90004694640460294FEF791F900962A
:103D0000CDE90154694640460394FEF789F906B0AF
:103D1000BDE8F08130380240000802400004024053
:103D20000000024010B586B00024174800940194AA
:103D30000294039404944FF0804105940160532150
:103D4000C0E901144FF6FF71C0E9031480218161BD
:103D5000FEF70EFE08B1FDF7BBFC4FF4805000905B
:103D600069460948FEF72DFF08B1FDF7B1FC049440
:103D700004A905480594FEF7B3FD002801D0FDF71E
:103D8000A7FC06B010BD0000AC01002010B586B045
:103D90000024184800940194029403940494144954
:103DA0000594016042F2CF01C0E9011442F20F71A3
:103DB000C0E9031480218161FEF7DAFD08B1FDF747
:103DC00087FC4FF48050009069460A48FEF7F9FEE0
:103DD00008B1FDF77DFC049404A906480594FEF79C
:103DE0007FFD002801D0FDF773FC06B010BD000078
:103DF00000040040F401002010B586B000241848EB
:103E0000009401940294039404941449059401606D
:103E100042F2CF01C0E9011442F20F71C0E903146C
:103E200080218161FEF7A4FD08B1FDF751FC4FF43C
:103E30008050009069460A48FEF7C3FE08B1FDF7BE
:103E400047FC049404A906480594FEF749FD0028A0
:103E500001D0FDF73DFC06B010BD00000008004099
:103E60003C02002010B586B000241748009401944D
:103E700002940394049413490594016042F2CF0123
:103E8000C0E9011442F20F71C0E903148461FEF726
:103E90006FFD08B1FDF71CFC4FF48050009069469F
:103EA0000948FEF78EFE08B1FDF712FC049404A940
:103EB00005480594FEF714FD002801D0FDF708FC25
:103EC00006B010BD000C0040840200201CB5002488
:103ED0000F4800940D490194016042F2CF01C0E9FE
:103EE000011444F61F618461C160FEF741FD08B111
:103EF000FDF7EEFB0094694605480194FEF7F0FCDF
:103F0000002801D0FDF7E4FB1CBD000000100040BC
:103F1000CC0200200C4810B50A4901604FF416513C
:103F20004160002181600C22C160C0E904128161FE
:103F3000C161FFF781F9002803D0BDE81040FDF70B
:103F4000C7BB10BD004C0040140300200C4810B546
:103F50000A4901604FF416514160002181600C2232
:103F6000C160C0E904128161C161FFF765F90028F1
:103F700003D0BDE81040FDF7ABBB10BD0010014001
:103F8000580300200C4810B50A4901604FF4E13194
:103F90004160002181600C22C160C0E9041281618E
:103FA000C161FFF749F9002803D0BDE81040FDF7D3
:103FB0008FBB10BD004400409C0300200C4810B58E
:103FC0000A4901604FF4E1314160002181600C2217
:103FD000C160C0E904128161C161FFF72DF90028B9
:103FE00003D0BDE81040FDF773BB10BD0048004092
:103FF000E0030020FEE700002DE9F0410A4E002515
:104000002C46A6F1200700BF36F8141057F82400FC
:10401000FEF7FEF8012800D16D1C641C082CF3DBB0
:104020002846BDE8F0810000940000200B484FF0C6
:104030007E5190ED000AB0EEC00A10EE100A8842E0
:104040000ADA074890ED000AB0EEC00A10EE100A36
:10405000884201DA012070470020704728000020C4
:104060002C00002030B5114887B00025016841F0D0
:10407000040101600068142100F004000590684606
:10408000FCF7E8F843F6E0740120CDE90040022097
:10409000CDE90250064D69462846FDF7C1FF0122D1
:1040A00021462846FEF7C1F807B030BD303802403F
:1040B000000802402DE9F84F814690469B468A460B
:1040C0001846012B25D0022827D0032B43D14FF4CB
:1040D0008054661065000B464A4659461FA0CDF82D
:1040E000008000F0C1FC2C4F012229463846FEF723
:1040F0009CF8B9F1010F15D0002221463846FEF791
:1041000094F80AEBCA0100244FF47A7901EB0A17FC
:1041100013E0402420268025DDE74FF4007466106C
:104120006500D8E70122E8E7B8FBF9F0FDF766FF84
:1041300031461948FEF771F8641CB4EB471FF3D9F8
:10414000002229461448FEF770F85946BDE8F84F9A
:1041500012A000F089BCBDE8F88F00004D6F746FAD
:10416000722025752072756E6E696E672C206469E9
:1041700072656374696F6E3A2025752C20737465BF
:1041800070733A2025752C2073706565643A20257C
:10419000752075730D0A0000000802404D6F746FA2
:1041A000722025752073746F707065640D0A0000AD
:1041B000FEE7000000B512489DB0006901281CD040
:1041C0001049A1F11C0090F83D2000F1320390F855
:1041D0003100CDE90003CDE902210B3B0AA26421A5
:1041E00004A800F051FC04A8FCF751F882B24FF487
:1041F0007A7304A91348FFF793FA1DB000BD0000BD
:1042000000000020CC00002047505320506F7369FD
:1042100074696F6E3A204C617469747564653A20F4
:1042200025732025632C204C6F6E67697475646557
:104230003A2025732025632C2054696D653A20258A
:10424000730D0A001403002070470000084801782D
:1042500000290CD00021017008460649A1F148024E
:1042600031F8103022F81030401C0528F8DB704778
:1042700000000020F80000202DE9F041114E707878
:10428000114F124D002450B1747005F10B035A1EEA
:10429000B9143846FDF723F908B1AC72EC72B07866
:1042A00000280CD0B470094B4FF400510D335A1E46
:1042B0003846FDF714F9002801D02C736C73BDE863
:1042C000F08100000000002000040240B000002047
:1042D0000B4810B50178002910D000210170FFF7BC
:1042E000A3FAFFF7EFFA074C84ED040AFFF7F0FAA0
:1042F00084ED050AFFF7F2FA84ED060A10BD00000E
:1043000034000020B00000207047FDF799BF000086
:1043100030B593B030216846FBF79CFF14210CA800
:10432000FBF798FF1D480025016841F080510160AE
:10433000006800F0805011901948016841F48041F4
:1043400001600068022400F4804011900120009078
:10435000000401908001CDE9064008AA0420A821AC
:1043600082E813000B906846FEF7EEF808B172B6CB
:10437000FEE70CA90F2081E831004FF4A0500F9008
:104380004FF48050109005210CA8FDF7F3FF002892
:1043900001D072B6FEE713B030BD000040380240D5
:1043A000007000400248016841F4700101607047EC
:1043B00088ED00E00148FEF773BC0000AC0100206E
:1043C0000148FEF76DBC0000F401002008480068B9
:1043D0000169C943C90708D1C168C943C90704D1E4
:1043E000891E01610349012008700148FEF758BC8D
:1043F0003C020020020000200148FEF751BC0000F2
:10440000840200200148FEF74BBC0000CC020020D3
:10441000F0B50268254C264D264E274F274B4FF00E
:10442000804CA04209D0604507D0A84205D0B042D8
:1044300003D0B84201D0984204D122F0700E4A68ED
:1044400042EA0E02A0421BD0604519D0A84217D004
:10445000B04215D0B84213D0984211D0184DA8429E
:104460000ED0184DA8420BD0174DA84208D0174DBA
:10447000A84205D0164DA84202D0164DA84203D13D
:1044800022F44075CA682A434D6922F080022A430B
:1044900002608A68C2620A688262A04201D09842C1
:1044A00001D10969016301214161F0BD00000140B2
:1044B0000004004000080040000C004000040140DF
:1044C0000040014000440140004801400018004005
:1044D000001C00400020004010B5846842EA03221E
:1044E00024F47F440A432243826010BD826822F094
:1044F00070020A4342F007018160704710B5036AF9
:10450000046A24F001040462846924F0F00444EA9B
:10451000021423F00A020A438461026210BD10B53E
:10452000036A23F0100303628369046A23F470436F
:1045300043EA023224F0A00343EA011182610162DE
:1045400010BD00000148FEF743BD00001403002029
:1045500010B5806B0021C185C184FEF737FD10BD09
:1045600070B5846B2068406994F83D10C0F3C010AA
:104570000025212904D118B1E584204600F08AF8ED
:104580002068406994F83E10C0F38010222904D1BD
:1045900018B1E585204600F056F8206C40F0100078
:1045A00020642046FEF712FD70BD10B50146806BF9
:1045B00009680968C9052FD40021C18501680C313B
:1045C00051E8002F22F4807241E80023002BF5D13E
:1045D0000168143151E8002F22F0010241E8002364
:1045E000002BF5D10168143151E8002F22F0400270
:1045F00041E80023002BF5D1202180F83E10016B0B
:10460000012909D101680C3151E8002F22F0100274
:1046100041E80023002BF5D1016B012902D0FFF7FF
:104620000FF810BD818DFEF74EFC10BD10B5806BEC
:10463000016B012902D0FFF771F810BD818D490887
:10464000FEF741FC10BD01680C3151E8002F22F447
:10465000907241E80023002BF5D10168143151E834
:10466000002F22F0010241E80023002BF5D1016B5D
:10467000012909D101680C3151E8002F22F0100204
:1046800041E80023002BF5D1202180F83E100021C5
:104690000163704701680C3151E8002F22F0C0021D
:1046A00041E80023002BF5D1202180F83D10704710
:1046B00008B590F83E10222901D0022008BD82687A
:1046C0004FF480539A4201D1016921B1816A9A4223
:1046D0001BD04AB10AE00268816A5268C2F308023C
:1046E0000A80816A891C08E0026972B10268526816
:1046F00002F07F020A70816A491C8162C18D491EE5
:104700000904090CC18503D019E002685268F1E779
:104710000168CA6822F02002CA600168CA6822F4EF
:104720008072CA6001684A6922F001024A61202150
:1047300080F83E10016B012903D0FEF781FF0020B5
:1047400008BD0021016301680C3151E8002F22F0FF
:10475000100241E80023002BF5D101680A68D20657
:1047600002D50A6849680091818DFEF7ACFBE6E747
:1047700070B5044600680169E26821F440511143B4
:1047800001612169A068E269084361691143084336
:104790002168CA6849F20C639A430243CA602068E0
:1047A0004169A26921F44071114341613149206896
:1047B000884202D03049884202D1FDF785FE01E0EF
:1047C000FDF772FEE2690023192164253226B2F555
:1047D000004F626828D0A0FB0101930F9200FBF705
:1047E000EFFC0146B0FBF5F06FF01802504301EB0F
:1047F000800006EB0010B0FBF5F000F0F002B1FB1A
:10480000F5F002EB0012B1FBF5F06FF0180358431E
:1048100001EB800006EB0010B0FBF5F000F00F009C
:1048200021681044886070BDA0FB010192185B41B3
:10483000FBF7C6FC0146B0FBF5F00201B1FBF5F059
:104840006FF01803584301EB800006EBC000B0FB8B
:10485000F5F000F0F80002EB4002B1FBF5F0584330
:1048600001EB800006EBC000B0FBF5F000F00700A4
:10487000D6E70000001001400014014038B5816205
:1048800082850025134604460564222084F83E00F4
:10489000A26B1C48D063A26B1B481064A26B1B4820
:1048A000D064A06B0A4605652168A06B091DFDF761
:1048B0006DFB206801684068009084F83C502069D6
:1048C00048B120680C3050E8001F41F4807140E886
:1048D0000012002AF5D12068143050E8001F41F082
:1048E000010140E80012002AF5D12068143050E898
:1048F000001F41F0400140E80012002AF5D10020DD
:1049000038BD0000AB4500082D4600086145000891
:1049100081628285C28500210164222280F83E20C6
:1049200080F83C10016921B10168CA6842F48072C4
:10493000CA6001684A6942F001024A610068C168C0
:1049400041F02001C160002070472DE9F0419846F8
:1049500017460E460446069D27E0681C25D02DB15B
:10496000FDF768FCA0EB0800A8421ED920680C30B7
:1049700050E8001F21F4D07140E80012002AF5D160
:104980002068143050E8001F21F0010140E80012B7
:10499000002AF5D1202084F83D0084F83E00002054
:1049A00084F83C000320BDE8F0812068006836EA06
:1049B000000004D00020B842CFD00020F3E701204F
:1049C000F9E700000148FEF703BB00005803002090
:1049D00038B5134C20680168124DC1F3001181B144
:1049E000016841680091016840682046FEF7B6FA08
:1049F0000D48006840680D49C0F121006870012031
:104A000008702068C16841F01001C1602122E91CD2
:104A10000348FEF7EBFDBDE838400148FEF7D8BA81
:104A20009C030020B8050020E4040020340000208E
:104A30000148FEF7CDBA0000E0030020FEE70000C9
:104A400000210A464318491C89B2DA702129F9D39A
:104A500055218170027042700122C11C0148FEF78D
:104A6000DABD00009C0300200FB4054B10B503A96C
:104A7000044A029800F01EF910BC5DF814FB000017
:104A8000F9530008A80000200FB41CB50A46521EB6
:104A9000CDE9000207A9054B6A46069800F00AF91D
:104AA000009A002111701CBC5DF814FBE353000850
:104AB0000907090E002804DB00F1E02080F800144B
:104AC000704700F00F0000F1E02080F8141D7047DF
:104AD00030B583B0044600F017F89FED090B05468A
:104AE0008DED000B002221466846FBF7BAFD2846F3
:104AF00000F020F89DED000B03B030BD0000000079
:104B0000000000000000000001480068704700003D
:104B1000AC00002002E008C8121F08C1002AFAD128
:104B200070477047002001E001C1121F002AFBD12D
:104B3000704700000149086070470000AC00002089
:104B40002DE9FF5FDDE90220010DDDF838B00243F9
:104B500018D044F61050A1F2FF3141430D140F98C4
:104B6000012820D0A5EB0B00401C5FEA000A4FF0A3
:104B70000004474EDFF81C91A046504616D5CAF1F6
:104B8000000728E00F98012443A2012808D0002143
:104B900000980F9BC0E90021C0E90243BDE8FF9FD8
:104BA0006FEA0B01F4E7CBF10000DEE7074612E005
:104BB000F80707D02246334640464946FBF72CFC0F
:104BC000804689462246334610461946FBF724FCA8
:104BD00004460E467F10002FEAD1DDE90201BAF14A
:104BE000000F42464B4602DAFBF716FC01E0FBF7EA
:104BF000A6FE04460E460022284BFBF727FF03D8EB
:104C00004FF0FF30014607E00022254B2046314699
:104C1000FBF7EEFDFBF702FF102409E0002C0ADB96
:104C20000A220023FBF7CCFA019B30321A55641E8E
:104C300050EA0102F2D1641C019AC4F11103144438
:104C40000F9A012A03D0012208430DD10AE008433C
:104C500004D000204FF0110B0F9080E7A3EB0B0561
:104C60006D1E0DE05B4504DD4FF0000205F101050E
:104C700004E003DA4FF00002A5F10105002AECD0B0
:104C800000980F99C0E90231C0E9004586E70000AD
:104C9000000024400000F03F300000000000F0431E
:104CA0000000E03F30380A2801D201207047002080
:104CB000704700002DE9FF4F95B09B468946064698
:104CC00000250FE2252877D100242746F84A012144
:104CD000059400E0044316F8013F203B01FA03F07D
:104CE0001042F7D130782A2811D06FF02F03307896
:104CF000A0F13002092A16D8059A44F0020402EB0A
:104D0000820203EB42021044761C0590EFE759F84B
:104D1000042B0592002A03DA504244F40054059013
:104D200044F00204761C30782E2816D116F8010FB4
:104D300044F004042A280DD06FF02F023078A0F13F
:104D40003003092B09D807EB870302EB4303C7188D
:104D5000761CF3E759F8047B761C30786C280FD06A
:104D600006DC4C2817D068280DD06A2814D104E03E
:104D7000742810D07A280FD10DE044F400140AE012
:104D800044F4801401E044F440147278824202D169
:104D900004F58014761C761C307866280BD013DC62
:104DA000582877D009DC002875D04528F6D0462849
:104DB000F4D047281AD19DE118E0632835D0642843
:104DC00079D0652812D195E1702873D008DC672866
:104DD000F1D069286FD06E280DD06F2806D1B5E0CC
:104DE00073282CD0752875D0782874D05A46179916
:104DF00090476D1C75E1C4F30250022809D00328C6
:104E00000DD0D9F8001004280DD00D6009F1040967
:104E100067E1D9F80010EA17C1E90052F6E7D9F8BE
:104E200000100D80F2E70D70F0E719F8041B8DF803
:104E3000001000208DF80100EA46012003E059F837
:104E400004AB4FF0FF3061074FF0000102D40DE0DA
:104E500008F101018846B9420FDA8045F8DB1AF8FB
:104E600008100029F4D108E008F1010188468142C8
:104E7000FADB1AF808100029F6D105985B46A0EB7A
:104E8000080721463846179A00F094FA284400EBA8
:104E9000080507E04DE029E10DE01AF8010B5A463C
:104EA00017999047B8F10108F7D25B46214638467A
:104EB000179A13E142E00A220092C4F302524FF023
:104EC000000A022A08D059F804CB032A4FEAEC71F1
:104ED0000AD00DE029E02AE009F1070121F00702DC
:104EE000F2E802C1914609E00FFA8CFC4FEAEC713E
:104EF000042A03D14FFA8CFC4FEAEC71002907DA3F
:104F00000A460021DCF1000C61EB02012D2202E0D7
:104F1000220504D52B228DF80420012203E0E207AC
:104F200001D02022F7E7904659E00A2102E0102242
:104F30000DE010214FF0000A00910BE010224FF01D
:104F4000000A44F004040827009203E008224FF00E
:104F5000000A0092C4F30252022A05D059F804CB89
:104F60000021032A08D009E009F1070121F0070216
:104F7000F2E802C1914605E01FFA8CFC042A01D137
:104F80000CF0FF0C4FF00008220728D5702806D03F
:104F9000009B83F0100353EA0A0305D00EE0402281
:104FA0008DF80420012208E05CEA010206D03022DC
:104FB0008DF804208DF8050002229046009B83F0B6
:104FC000080353EA0A030AD15CEA010201D162072D
:104FD00005D530228DF804204FF001087F1E582897
:104FE00004D034A003900EA802900DE036A0F9E79B
:104FF00053466046009AFBF7E3F884460398825CC8
:105000000298401E029002705CEA0100F0D1029802
:1050100006A9081A00F1200A600702D524F480349A
:1050200000E00127574502DDA7EB0A0000E0002061
:1050300000EB0A01009005984144401A0590E003F6
:1050400006D45B462146179A059800F0B3F905444B
:10505000002706E001A85A46C05D179990476D1CCD
:105060007F1C4745F6DBE0030CD55B462146179ACB
:10507000059800F09FF9054404E030205A4617993E
:1050800090476D1C0099481E00900029F5DC08E04F
:10509000029802995A460078491C02911799904744
:1050A0006D1CBAF10001AAF1010AF1DC65E1000012
:1050B00009280100303132333435363738396162EE
:1050C00063646566000000003031323334353637B2
:1050D00038394142434445460000000000F058F989
:1050E0000544761C307800287FF4ECAD19B02846D2
:1050F000BDE8F08F620700D4062709F1070222F00D
:10510000070CFCE80223E14603F000485FEA080CC4
:1051100002D00FF2702C0DE05FEA045C02D50FF2B2
:10512000682C07E05FEAC47C02D00FF2602C01E03B
:10513000AFF2700C4FF0FF3823F00043CDF850C0B1
:1051400065280CD006DC452809D046281DD0472804
:105150003DD13DE0662818D067287ED138E0002197
:10516000112F01DB112000E0781CCDE9000106A918
:105170000EA8FFF7E5FCDDE90F010E9A039100216F
:10518000009207F1010A04914DE04FF000400097B2
:10519000CDE9011006A90EA8FFF7D2FCDDE90F0248
:1051A00003920E9B11990022DDF80CA0009304924B
:1051B00011B9791C00EB010AB7EB0A0004D4C0F165
:1051C000FF3007F1010A0490AAEB0700019044E0C8
:1051D000012F00DA01270021112F01DD112000E04D
:1051E0003846CDE9000106A90EA8FFF7A9FCDDE9C4
:1051F0000F010E9A0391002104910092BA462107F3
:105200000CD40399514500DA8A46BAF1010F05DD45
:10521000009AAAF10101515C302908D0B84202DAA3
:1052200010F1040F06DA0121CDE9011015E0AAF111
:105230000101E9E7002805DC049901440491AAEB87
:10524000000102E0411C514500DD8A460499401AE4
:10525000401C01904FF000400290200704D40198B8
:10526000504501DBCDF8048000208DF84F000298F6
:105270000DF14F07B0F1004F25D02B200E90029872
:105280004FF0020800280CDA404202902D200E90C8
:1052900007E00A210298FBF760F93031029007F825
:1052A000011DB8F10001A8F10108F2DC0298002804
:1052B000EFD1791E0E980870307800F0200040F091
:1052C000450007F8020D12A8C01B00F1070814984A
:1052D000007800B1012000EB0A01019801EBE071B8
:1052E00005984144401A401E0590E00306D45B46F1
:1052F0002146179A059800F05DF805441498007847
:1053000018B15A46179990476D1CE00324D55B46A7
:105310002146179A059800F04DF805441CE00498C2
:10532000002807DBDDE90301884203DD0098405CCB
:10533000179901E0179930205A469047049805F1D3
:105340000105401C04900198401E019004D12E20BC
:105350005A46179990476D1CBAF10001AAF1010A4B
:10536000DDDC05E017F8010B5A46179990476D1CD4
:10537000B8F10001A8F10108F4DC5B462146179A58
:105380000598ABE62D0000002B0000002000000077
:105390002DE9F041044600251E461746880404D432
:1053A00005E039462020B0476D1C641EF9D528461B
:1053B000BDE8F0812DE9F041044600251E469046E7
:1053C000C80301D5302700E02027880404D505E074
:1053D00041463846B0476D1C641EF9D52846BDE8E5
:1053E000F0814A68002A06D00A68531C0B601070CE
:1053F0004868401E4860704713B54FF47A73012225
:1054000069460248FEF78CF901201CBDE00300202C
:105410002DE9F04F2DED0C8BCBB0FCF70BFFA24824
:10542000817A00EE101AC17AF8EE40DA00EE101A16
:10543000017BB8EE409A00EE101A417BB8EE40DADC
:1054400000EE101AD0ED04AA90ED05AAF8EE408AFD
:10545000D0ED069A018800EE101A4188F8EE40BAA5
:1054600000EE101A8188B8EE40BA00EE101AC1881A
:10547000F8EE40CA00EE101A0089B8EE40CA00EEFD
:10548000100AB8EE408A18EE100AFBF737F8064605
:105490000F461CEE100AFBF731F804460D461CEED1
:1054A000900AFBF72BF8CDE90C011BEE100AFBF775
:1054B00025F8CDE90A011BEE900AFBF71FF8CDE9AC
:1054C000080119EE900AFBF719F8CDE906011AEE6A
:1054D000100AFBF713F8CDE904011AEE900AFBF766
:1054E0000DF8CDE9020118EE900AFBF707F8CDE9B7
:1054F00000011DEE100AFBF701F882468B4619EEFB
:10550000100AFAF7FBFF804689461DEE900AFAF76B
:10551000F5FF0A4614A981E8F000DDE90C34CDE975
:105520001234DDE90A34CDE91034DDE90834CDE97F
:105530000E34DDE90634CDE90C34DDE90434CDE97F
:105540000A34DDE90234CDE90834DDE900348DE8C0
:10555000050FCDE90634554AC82118A8FFF794FA7B
:1055600018A953A0FFF780FA1BEE900A5149884210
:1055700003DB1BEE100A884202DA4FA0FFF774FA31
:1055800019EE100A4FF08341884203DC18EE900AAE
:10559000884202DD51A0FFF767FA19EE101A594848
:1055A000814203DC18EE901A814202DD56A0FFF71B
:1055B0005BFA18EE100A5949884201DA58A007E050
:1055C00018EE100A5C490844B0F5B50F02D95BA08B
:1055D000FFF74AFA5E484FF0824190ED070A3AEE33
:1055E000C00AF0EEC08A90ED080A3AEE400AB0EE2A
:1055F000C08A90ED090AC0ED07AA80ED08AA39EE2D
:10560000C00AC0ED099A18EE900AB0EEC00A8842AE
:1056100007DC18EE100A884203DC10EE100A8842FC
:1056200015DD10EE100AFAF769FF06460F4618EE70
:10563000100AFAF763FF04460D4618EE900AFAF7CF
:105640005DFF41EC100B434853EC102B22E018EEA9
:10565000900A4FF07E51884207DC18EE100A88420B
:1056600003DC10EE100A884218DD10EE100AFAF77B
:1056700045FF06460F4618EE100AFAF73FFF0446AC
:105680000D4618EE900AFAF739FF41EC100B32483C
:1056900053EC102B8DE8F000FFF7E6F94BB0BDECB2
:1056A0000C8BBDE8F08F0000B0000020645E0008A5
:1056B00025730A0000404E455761726E696E673A65
:1056C0002053797374656D20686173206265656E1F
:1056D0002072656D6F766564210D0A005761726EE8
:1056E000696E673A2053797374656D2074656D70C7
:1056F00065726174757265206368616E6765732198
:105700000D0A000000002042B1A8BEAF3A20C4CD6F
:10571000D1B9B2D5B9FDCEC2A3A10A000000C842DA
:10572000D4A4BEAF3A20D3A6B1E4CAFDBEDDD2EC0C
:10573000B3A3A3A10A000000008044BBD4A4BEAF61
:105740003A20C4CDD1B9B2D5D0CEB1E4A3A10A00DC
:1057500000000020BC5E00080C5F000892B03421FD
:1057600004A8FAF777FDFEF72FFAFCF771FDFEF7B4
:10577000CFFDFEF767FAFEF727FAFEF7E7FBFEF725
:105780001DFCFEF7FFFBFEF7C5FBFEF7BFF9FEF7BA
:10579000C9FAFEF7FBFAFEF72FFBFEF763FBFEF7F5
:1057A00095FBFEF75FFCFEF78FF9FEF75DF9774892
:1057B000FFF746F9FEF73AFCFBF78CFF0522744928
:1057C0007448FCF7A1F97448FDF7A8F97348FDF790
:1057D000A5F97348FDF7A2F97248FDF79FF97248E1
:1057E000FDF79CF94FF4FA754FF0010B4FF0000AEA
:1057F0006E4C6E0018E0342104A8FAF72BFD3346F6
:10580000322204A96A48FDF791FE6AA104A8FAF7BA
:105810002CFD18B184F806B068A000E072A0FFF774
:1058200023F92846FCF7EAFBA0790028E3D0A0463C
:10583000D8F80C00002864D0D8F81000444600289E
:105840005FD16420FCF7DAFB7048007820B16F4923
:1058500081F800A0FDF7E8FFC4F810B0C4F814B058
:105860004A48A04690ED090A84ED0A0A90ED0A0A1A
:1058700084ED0B0A90ED0B0A84ED0C0A35E06420F0
:10588000FCF7BCFB6148017819B180F800A0FDF776
:10589000CBFF3E48416AC8F82810866AC8F82C60D9
:1058A000C06A8946C8F83000FAF728FE04460D465B
:1058B0003046FAF723FE06460F464846FAF71EFE24
:1058C00041EC100B52A053EC102BCDE90245CDE971
:1058D0000067FFF7C9F8D8ED0B0A98ED0A0AFBF745
:1058E0002BFD4FF4FA70FCF789FBFEF79FFB0028B5
:1058F000C5D0C8F818B088F803A088F804A088F8C4
:1059000005A0D8F81800444601281BD1FEF774FB07
:105910000146A06046A0FFF7A7F8E07820B9A0688C
:10592000002801DD84F803B0E07840B1FEF7A4FC64
:10593000FEF78CFCFEF7CCFCFFF76AFD02E043A00B
:10594000FFF792F8342104A8FAF784FC4FF4FA73B5
:10595000322204A91648FDF7E9FD16A104A8FAF7BA
:1059600084FC28B1C4F810A0C4F818A046A007E031
:105970004EA104A8FAF779FC20B1C4F818A04DA0F4
:10598000FFF772F800F0EEF952E70000B8050020CA
:10599000F800002004010020AC010020F4010020E8
:1059A0003C02002084020020CC02002000000020E5
:1059B000E003002073746172740000005379737403
:1059C000656D20456E61626C65642E205374617252
:1059D00074696E67206F7065726174696F6E732E83
:1059E0002E2E0D0A0000000057616974696E672051
:1059F000666F72202773746172742720636F6D6DF8
:105A0000616E642E2E2E0D0A00000000340000206E
:105A100050697463683A2025662C20526F6C6C3A8A
:105A20002025662C205961773A2025660D0A000052
:105A3000436C6F7365642053776974636820436FA8
:105A4000756E743A2025640D0A00000047505320FB
:105A500070726F63657373696E672068616C7465DB
:105A6000642064756520746F20696E73756666695D
:105A70006369656E742073776974636820636F75FA
:105A80006E742E0D0A00000053797374656D2052F8
:105A9000655374617274696E67206F7065726174AA
:105AA000696F6E732E2E2E0D0A00000073746F70D6
:105AB0000000000053797374656D2053746F706536
:105AC00064210D0A0000000010B50E48FAF7DFFB54
:105AD000002816D00CA10B4808E00CA1FAF7C5FB72
